{
  "_format": "hh-sol-artifact-1",
  "contractName": "VoteContract",
  "sourceName": "contracts/VoteContract.sol",
  "abi": [
    {
      "inputs": [
        {
          "internalType": "string",
          "name": "name",
          "type": "string"
        },
        {
          "internalType": "uint256",
          "name": "const",
          "type": "uint256"
        }
      ],
      "name": "addCandidate",
      "outputs": [],
      "stateMutability": "nonpayable",
      "type": "function"
    },
    {
      "inputs": [
        {
          "internalType": "address",
          "name": "_address",
          "type": "address"
        },
        {
          "internalType": "uint256",
          "name": "const",
          "type": "uint256"
        }
      ],
      "name": "addToWhitelist",
      "outputs": [],
      "stateMutability": "nonpayable",
      "type": "function"
    },
    {
      "inputs": [
        {
          "internalType": "address",
          "name": "_address",
          "type": "address"
        }
      ],
      "name": "removeFromWhitelist",
      "outputs": [],
      "stateMutability": "nonpayable",
      "type": "function"
    },
    {
      "inputs": [
        {
          "internalType": "uint256",
          "name": "const",
          "type": "uint256"
        }
      ],
      "name": "toggleVotingEnabled",
      "outputs": [],
      "stateMutability": "nonpayable",
      "type": "function"
    },
    {
      "inputs": [],
      "stateMutability": "nonpayable",
      "type": "constructor"
    },
    {
      "inputs": [
        {
          "internalType": "uint256",
          "name": "index",
          "type": "uint256"
        }
      ],
      "name": "vote",
      "outputs": [],
      "stateMutability": "nonpayable",
      "type": "function"
    },
    {
      "inputs": [],
      "name": "getCandidateCount",
      "outputs": [
        {
          "internalType": "uint256",
          "name": "",
          "type": "uint256"
        }
      ],
      "stateMutability": "view",
      "type": "function"
    },
    {
      "inputs": [],
      "name": "getCandidateData",
      "outputs": [
        {
          "internalType": "string[]",
          "name": "",
          "type": "string[]"
        }
      ],
      "stateMutability": "view",
      "type": "function"
    },
    {
      "inputs": [
        {
          "internalType": "address",
          "name": "_address",
          "type": "address"
        }
      ],
      "name": "getConstituency",
      "outputs": [
        {
          "internalType": "uint256",
          "name": "",
          "type": "uint256"
        }
      ],
      "stateMutability": "view",
      "type": "function"
    },
    {
      "inputs": [],
      "name": "getConstituencyCandidate",
      "outputs": [
        {
          "internalType": "uint256[]",
          "name": "",
          "type": "uint256[]"
        }
      ],
      "stateMutability": "view",
      "type": "function"
    },
    {
      "inputs": [],
      "name": "getResult",
      "outputs": [
        {
          "internalType": "uint256[]",
          "name": "",
          "type": "uint256[]"
        }
      ],
      "stateMutability": "view",
      "type": "function"
    },
    {
      "inputs": [],
      "name": "hasVoted",
      "outputs": [
        {
          "internalType": "bool",
          "name": "",
          "type": "bool"
        }
      ],
      "stateMutability": "view",
      "type": "function"
    },
    {
      "inputs": [],
      "name": "isOwner",
      "outputs": [
        {
          "internalType": "bool",
          "name": "",
          "type": "bool"
        }
      ],
      "stateMutability": "view",
      "type": "function"
    },
    {
      "inputs": [
        {
          "internalType": "uint256",
          "name": "const",
          "type": "uint256"
        }
      ],
      "name": "isVotingEnabled",
      "outputs": [
        {
          "internalType": "bool",
          "name": "",
          "type": "bool"
        }
      ],
      "stateMutability": "view",
      "type": "function"
    },
    {
      "inputs": [
        {
          "internalType": "address",
          "name": "_address",
          "type": "address"
        }
      ],
      "name": "isWhitelisted",
      "outputs": [
        {
          "internalType": "bool",
          "name": "",
          "type": "bool"
        }
      ],
      "stateMutability": "view",
      "type": "function"
    }
  ],
  "bytecode": "6080604052348015600e575f80fd5b50335f806101000a81548173ffffffffffffffffffffffffffffffffffffffff021916908373ffffffffffffffffffffffffffffffffffffffff160217905550600160055f805f9054906101000a900473ffffffffffffffffffffffffffffffffffffffff1673ffffffffffffffffffffffffffffffffffffffff1673ffffffffffffffffffffffffffffffffffffffff1681526020019081526020015f205f6101000a81548160ff0219169083151502179055506119bb806100d05f395ff3fe608060405234801561000f575f80fd5b50600436106100e8575f3560e01c80638ab1d6811161008a578063975e489211610064578063975e489214610248578063bfc250e814610264578063de29278914610282578063e23cec7b146102a0576100e8565b80638ab1d681146101de5780638f32d59b146101fa57806396419f7514610218576100e8565b806330a56347116100c657806330a56347146101545780633af32abf1461017257806350a4ca1b146101a257806364821338146101c0576100e8565b80630121b93f146100ec57806305a96b5414610108578063214405fc14610138575b5f80fd5b61010660048036038101906101019190610e51565b6102bc565b005b610122600480360381019061011d9190610e51565b6105d5565b60405161012f9190610e96565b60405180910390f35b610152600480360381019061014d9190610f09565b6105fb565b005b61015c610723565b6040516101699190610f56565b60405180910390f35b61018c60048036038101906101879190610f6f565b61072c565b6040516101999190610e96565b60405180910390f35b6101aa61077e565b6040516101b791906110c5565b60405180910390f35b6101c86108bf565b6040516101d59190610e96565b60405180910390f35b6101f860048036038101906101f39190610f6f565b61090f565b005b610202610a35565b60405161020f9190610e96565b60405180910390f35b610232600480360381019061022d9190610f6f565b610a8a565b60405161023f9190610f56565b60405180910390f35b610262600480360381019061025d9190610e51565b610ad0565b005b61026c610ba6565b604051610279919061119c565b60405180910390f35b61028a610c5d565b604051610297919061119c565b60405180910390f35b6102ba60048036038101906102b591906112e8565b610d14565b005b60055f3373ffffffffffffffffffffffffffffffffffffffff1673ffffffffffffffffffffffffffffffffffffffff1681526020019081526020015f205f9054906101000a900460ff16610345576040517f08c379a000000000000000000000000000000000000000000000000000000000815260040161033c9061139c565b60405180910390fd5b60015f3373ffffffffffffffffffffffffffffffffffffffff1673ffffffffffffffffffffffffffffffffffffffff1681526020019081526020015f205f9054906101000a900460ff16156103cf576040517f08c379a00000000000000000000000000000000000000000000000000000000081526004016103c690611404565b60405180910390fd5b60075f60065f3373ffffffffffffffffffffffffffffffffffffffff1673ffffffffffffffffffffffffffffffffffffffff1681526020019081526020015f205481526020019081526020015f205f9054906101000a900460ff16610469576040517f08c379a00000000000000000000000000000000000000000000000000000000081526004016104609061146c565b60405180910390fd5b5f60035f8381526020019081526020015f208054610486906114b7565b9050116104c8576040517f08c379a00000000000000000000000000000000000000000000000000000000081526004016104bf90611531565b60405180910390fd5b60045f8281526020019081526020015f205460065f3373ffffffffffffffffffffffffffffffffffffffff1673ffffffffffffffffffffffffffffffffffffffff1681526020019081526020015f205414610558576040517f08c379a000000000000000000000000000000000000000000000000000000000815260040161054f90611599565b60405180910390fd5b60025f8281526020019081526020015f205f815480929190610579906115e4565b91905055506001805f3373ffffffffffffffffffffffffffffffffffffffff1673ffffffffffffffffffffffffffffffffffffffff1681526020019081526020015f205f6101000a81548160ff02191690831515021790555050565b5f60075f8381526020019081526020015f205f9054906101000a900460ff169050919050565b5f8054906101000a900473ffffffffffffffffffffffffffffffffffffffff1673ffffffffffffffffffffffffffffffffffffffff163373ffffffffffffffffffffffffffffffffffffffff1614610688576040517f08c379a000000000000000000000000000000000000000000000000000000000815260040161067f9061169b565b60405180910390fd5b600160055f8473ffffffffffffffffffffffffffffffffffffffff1673ffffffffffffffffffffffffffffffffffffffff1681526020019081526020015f205f6101000a81548160ff0219169083151502179055508060065f8473ffffffffffffffffffffffffffffffffffffffff1673ffffffffffffffffffffffffffffffffffffffff1681526020019081526020015f20819055505050565b5f600854905090565b5f60055f8373ffffffffffffffffffffffffffffffffffffffff1673ffffffffffffffffffffffffffffffffffffffff1681526020019081526020015f205f9054906101000a900460ff169050919050565b60605f600160085461079091906116b9565b67ffffffffffffffff8111156107a9576107a86111c4565b5b6040519080825280602002602001820160405280156107dc57816020015b60608152602001906001900390816107c75790505b5090505f600190505b60085481116108b75760035f8281526020019081526020015f20805461080a906114b7565b80601f0160208091040260200160405190810160405280929190818152602001828054610836906114b7565b80156108815780601f1061085857610100808354040283529160200191610881565b820191905f5260205f20905b81548152906001019060200180831161086457829003601f168201915b5050505050828281518110610899576108986116ec565b5b602002602001018190525080806108af906115e4565b9150506107e5565b508091505090565b5f60015f3373ffffffffffffffffffffffffffffffffffffffff1673ffffffffffffffffffffffffffffffffffffffff1681526020019081526020015f205f9054906101000a900460ff16905090565b5f8054906101000a900473ffffffffffffffffffffffffffffffffffffffff1673ffffffffffffffffffffffffffffffffffffffff163373ffffffffffffffffffffffffffffffffffffffff161461099c576040517f08c379a00000000000000000000000000000000000000000000000000000000081526004016109939061169b565b60405180910390fd5b5f60055f8373ffffffffffffffffffffffffffffffffffffffff1673ffffffffffffffffffffffffffffffffffffffff1681526020019081526020015f205f6101000a81548160ff0219169083151502179055505f60065f8373ffffffffffffffffffffffffffffffffffffffff1673ffffffffffffffffffffffffffffffffffffffff1681526020019081526020015f208190555050565b5f805f9054906101000a900473ffffffffffffffffffffffffffffffffffffffff1673ffffffffffffffffffffffffffffffffffffffff163373ffffffffffffffffffffffffffffffffffffffff1614905090565b5f60065f8373ffffffffffffffffffffffffffffffffffffffff1673ffffffffffffffffffffffffffffffffffffffff1681526020019081526020015f20549050919050565b5f8054906101000a900473ffffffffffffffffffffffffffffffffffffffff1673ffffffffffffffffffffffffffffffffffffffff163373ffffffffffffffffffffffffffffffffffffffff1614610b5d576040517f08c379a0000000000000000000000000000000000000000000000000000000008152600401610b549061169b565b60405180910390fd5b60075f8281526020019081526020015f205f9054906101000a900460ff161560075f8381526020019081526020015f205f6101000a81548160ff02191690831515021790555050565b60605f6001600854610bb891906116b9565b67ffffffffffffffff811115610bd157610bd06111c4565b5b604051908082528060200260200182016040528015610bff5781602001602082028036833780820191505090505b5090505f600190505b6008548111610c555760045f8281526020019081526020015f2054828281518110610c3657610c356116ec565b5b6020026020010181815250508080610c4d906115e4565b915050610c08565b508091505090565b60605f6001600854610c6f91906116b9565b67ffffffffffffffff811115610c8857610c876111c4565b5b604051908082528060200260200182016040528015610cb65781602001602082028036833780820191505090505b5090505f600190505b6008548111610d0c5760025f8281526020019081526020015f2054828281518110610ced57610cec6116ec565b5b6020026020010181815250508080610d04906115e4565b915050610cbf565b508091505090565b5f8054906101000a900473ffffffffffffffffffffffffffffffffffffffff1673ffffffffffffffffffffffffffffffffffffffff163373ffffffffffffffffffffffffffffffffffffffff1614610da1576040517f08c379a0000000000000000000000000000000000000000000000000000000008152600401610d989061169b565b60405180910390fd5b60085f815480929190610db3906115e4565b91905055508160035f60085481526020019081526020015f209081610dd891906118b6565b508060045f60085481526020019081526020015f20819055505f60025f60085481526020019081526020015f20819055505050565b5f604051905090565b5f80fd5b5f80fd5b5f819050919050565b610e3081610e1e565b8114610e3a575f80fd5b50565b5f81359050610e4b81610e27565b92915050565b5f60208284031215610e6657610e65610e16565b5b5f610e7384828501610e3d565b91505092915050565b5f8115159050919050565b610e9081610e7c565b82525050565b5f602082019050610ea95f830184610e87565b92915050565b5f73ffffffffffffffffffffffffffffffffffffffff82169050919050565b5f610ed882610eaf565b9050919050565b610ee881610ece565b8114610ef2575f80fd5b50565b5f81359050610f0381610edf565b92915050565b5f8060408385031215610f1f57610f1e610e16565b5b5f610f2c85828601610ef5565b9250506020610f3d85828601610e3d565b9150509250929050565b610f5081610e1e565b82525050565b5f602082019050610f695f830184610f47565b92915050565b5f60208284031215610f8457610f83610e16565b5b5f610f9184828501610ef5565b91505092915050565b5f81519050919050565b5f82825260208201905092915050565b5f819050602082019050919050565b5f81519050919050565b5f82825260208201905092915050565b8281835e5f83830152505050565b5f601f19601f8301169050919050565b5f61100582610fc3565b61100f8185610fcd565b935061101f818560208601610fdd565b61102881610feb565b840191505092915050565b5f61103e8383610ffb565b905092915050565b5f602082019050919050565b5f61105c82610f9a565b6110668185610fa4565b93508360208202850161107885610fb4565b805f5b858110156110b357848403895281516110948582611033565b945061109f83611046565b925060208a0199505060018101905061107b565b50829750879550505050505092915050565b5f6020820190508181035f8301526110dd8184611052565b905092915050565b5f81519050919050565b5f82825260208201905092915050565b5f819050602082019050919050565b61111781610e1e565b82525050565b5f611128838361110e565b60208301905092915050565b5f602082019050919050565b5f61114a826110e5565b61115481856110ef565b935061115f836110ff565b805f5b8381101561118f578151611176888261111d565b975061118183611134565b925050600181019050611162565b5085935050505092915050565b5f6020820190508181035f8301526111b48184611140565b905092915050565b5f80fd5b5f80fd5b7f4e487b71000000000000000000000000000000000000000000000000000000005f52604160045260245ffd5b6111fa82610feb565b810181811067ffffffffffffffff82111715611219576112186111c4565b5b80604052505050565b5f61122b610e0d565b905061123782826111f1565b919050565b5f67ffffffffffffffff821115611256576112556111c4565b5b61125f82610feb565b9050602081019050919050565b828183375f83830152505050565b5f61128c6112878461123c565b611222565b9050828152602081018484840111156112a8576112a76111c0565b5b6112b384828561126c565b509392505050565b5f82601f8301126112cf576112ce6111bc565b5b81356112df84826020860161127a565b91505092915050565b5f80604083850312156112fe576112fd610e16565b5b5f83013567ffffffffffffffff81111561131b5761131a610e1a565b5b611327858286016112bb565b925050602061133885828601610e3d565b9150509250929050565b5f82825260208201905092915050565b7f596f7520617265206e6f7420616c6c6f77656420746f20766f746500000000005f82015250565b5f611386601b83611342565b915061139182611352565b602082019050919050565b5f6020820190508181035f8301526113b38161137a565b9050919050565b7f596f75206861766520616c726561647920766f746564000000000000000000005f82015250565b5f6113ee601683611342565b91506113f9826113ba565b602082019050919050565b5f6020820190508181035f83015261141b816113e2565b9050919050565b7f566f74696e67206973206e6f7420656e61626c656421000000000000000000005f82015250565b5f611456601683611342565b915061146182611422565b602082019050919050565b5f6020820190508181035f8301526114838161144a565b9050919050565b7f4e487b71000000000000000000000000000000000000000000000000000000005f52602260045260245ffd5b5f60028204905060018216806114ce57607f821691505b6020821081036114e1576114e061148a565b5b50919050565b7f43616e646964617465204e6f7420466f756e64000000000000000000000000005f82015250565b5f61151b601383611342565b9150611526826114e7565b602082019050919050565b5f6020820190508181035f8301526115488161150f565b9050919050565b7f436f6e7374697475656e6379204d69736d6174636821000000000000000000005f82015250565b5f611583601683611342565b915061158e8261154f565b602082019050919050565b5f6020820190508181035f8301526115b081611577565b9050919050565b7f4e487b71000000000000000000000000000000000000000000000000000000005f52601160045260245ffd5b5f6115ee82610e1e565b91507fffffffffffffffffffffffffffffffffffffffffffffffffffffffffffffffff82036116205761161f6115b7565b5b600182019050919050565b7f4163636573732044656e696564203a206f6e6c79206f776e65722063616e20615f8201527f636365737320746869732066756e6374696f6e21000000000000000000000000602082015250565b5f611685603483611342565b91506116908261162b565b604082019050919050565b5f6020820190508181035f8301526116b281611679565b9050919050565b5f6116c382610e1e565b91506116ce83610e1e565b92508282019050808211156116e6576116e56115b7565b5b92915050565b7f4e487b71000000000000000000000000000000000000000000000000000000005f52603260045260245ffd5b5f819050815f5260205f209050919050565b5f6020601f8301049050919050565b5f82821b905092915050565b5f600883026117757fffffffffffffffffffffffffffffffffffffffffffffffffffffffffffffffff8261173a565b61177f868361173a565b95508019841693508086168417925050509392505050565b5f819050919050565b5f6117ba6117b56117b084610e1e565b611797565b610e1e565b9050919050565b5f819050919050565b6117d3836117a0565b6117e76117df826117c1565b848454611746565b825550505050565b5f90565b6117fb6117ef565b6118068184846117ca565b505050565b5b818110156118295761181e5f826117f3565b60018101905061180c565b5050565b601f82111561186e5761183f81611719565b6118488461172b565b81016020851015611857578190505b61186b6118638561172b565b83018261180b565b50505b505050565b5f82821c905092915050565b5f61188e5f1984600802611873565b1980831691505092915050565b5f6118a6838361187f565b9150826002028217905092915050565b6118bf82610fc3565b67ffffffffffffffff8111156118d8576118d76111c4565b5b6118e282546114b7565b6118ed82828561182d565b5f60209050601f83116001811461191e575f841561190c578287015190505b611916858261189b565b86555061197d565b601f19841661192c86611719565b5f5b828110156119535784890151825560018201915060208501945060208101905061192e565b86831015611970578489015161196c601f89168261187f565b8355505b6001600288020188555050505b50505050505056fea264697066735822122056367c829a67e1b700cb64a4ddbd0a3b679753ae0cc77ee133ad76175f3eedae64736f6c634300081a0033",
  "linkReferences": {},
  "deployedLinkReferences": {}
}